:100000000C9435000C945D000C945D000C945D0024
:100010000C945D000C945D000C945D000C945D00EC
:100020000C945D000C945D000C945D000C945D00DC
:100030000C945D000C945D000C945D000C945D00CC
:100040000C945D000C945D000C94CF010C94A901FC
:100050000C945D000C945D000C945D000C945D00AC
:100060000C945D000C945D00010211241FBECFEFC3
:10007000D8E0DEBFCDBF11E0A0E0B1E0E6E4FBE0F8
:1000800002C005900D92A232B107D9F721E0A2E299
:10009000B1E001C01D92AF3BB207E1F710E0C5E34C
:1000A000D0E004C02197FE010E949B05C433D10714
:1000B000C9F70E942E020C94A1050C940000AF9287
:1000C000BF92CF92DF92EF92FF920F931F93CF9345
:1000D000DF936C017B018B01040F151FEB015E01A7
:1000E000AE18BF08C017D10759F06991D601ED913C
:1000F000FC910190F081E02DC6010995892B79F7DB
:10010000C501DF91CF911F910F91FF90EF90DF908C
:10011000CF90BF90AF900895FC01538D448D252F53
:1001200030E0842F90E0821B930B541710F0CF9691
:10013000089501970895FC01918D828D981761F0C3
:10014000A28DAE0FBF2FB11D5D968C91928D9F5FDA
:100150009F73928F90E008958FEF9FEF0895FC01B9
:10016000918D828D981731F0828DE80FF11D858D6C
:1001700090E008958FEF9FEF0895FC01918D228DFF
:10018000892F90E0805C9F4F821B91098F73992784
:100190000895FC01A48DA80FB92FB11DA35ABF4F1C
:1001A0002C91848D90E001968F739927848FA68976
:1001B000B7892C93A089B1898C91837080648C93CA
:1001C000938D848D981306C00288F389E02D808179
:1001D0008F7D80830895EF92FF920F931F93CF93AB
:1001E000DF93EC0181E0888F9B8D8C8D98131AC072
:1001F000E889F989808185FF15C09FB7F894EE8959
:10020000FF896083E889F9898081837080648083B5
:100210009FBF81E090E0DF91CF911F910F91FF9000
:10022000EF900895F62E0B8D10E00F5F1F4F0F73A8
:100230001127E02E8C8D8E110CC00FB607FCFACF63
:10024000E889F989808185FFF5CFCE010E94C90038
:10025000F1CFEB8DEC0FFD2FF11DE35AFF4FF08234
:100260009FB7F8940B8FEA89FB8980818062CFCF9A
:10027000CF93DF93EC01888D8823B9F0AA89BB89DD
:10028000E889F9898C9185FD03C0808186FD0DC0C8
:100290000FB607FCF7CF8C9185FFF2CF808185FFE9
:1002A000EDCFCE010E94C900E9CFDF91CF91089533
:1002B000FC0101900020E9F73197AF01481B590B71
:1002C000BC0182E291E00C945F008F929F92AF920A
:1002D000BF920F931F93CF93DF93CDB7DEB7A19754
:1002E0000FB6F894DEBF0FBECDBF19A2423008F49E
:1002F0004AE08E010F5D1F4F842E912CB12CA12C52
:10030000A50194010E947905E62FB901CA01EA30DE
:10031000F4F4E05DD801EE938D01232B242B252BE3
:1003200079F790E080E0109719F0CD010E94580114
:10033000A1960FB6F894DEBF0FBECDBFDF91CF916F
:100340001F910F91BF90AF909F908F900895E95C9F
:10035000E1CF1F920F920FB60F9211242F933F936C
:100360004F935F936F937F938F939F93AF93BF93BD
:10037000EF93FF9382E291E00E94C900FF91EF9119
:10038000BF91AF919F918F917F916F915F914F91AD
:100390003F912F910F900FBE0F901F9018951F92B5
:1003A0000F920FB60F9211242F938F939F93EF9379
:1003B000FF93E0913201F09133018081E0913801A7
:1003C000F091390182FD1BC0908180913B018F5FCC
:1003D0008F7320913C01821741F0E0913B01F0E0E6
:1003E000EE5DFE4F958F80933B01FF91EF919F91C2
:1003F0008F912F910F900FBE0F901F9018958081B5
:10040000F4CFE2E2F1E01382128288EE93E0A0E002
:10041000B0E084839583A683B78384E091E09183E1
:10042000808385EC90E09587848784EC90E09787C3
:10043000868780EC90E0918B808B81EC90E0938BB1
:10044000828B82EC90E0958B848B86EC90E0978B8E
:10045000868B118E128E138E148E0895E0913201C8
:10046000F091330182E08083E0912E01F0912F0121
:100470001082E0913001F091310180E1808310928F
:100480003A01E0913601F091370186E08083E091F6
:100490003401F0913501808180618083E0913401E5
:1004A000F0913501808188608083E0913401F09182
:1004B0003501808180688083E0913401F0913501BD
:1004C00080818F7D808380E480937C0087E88093A7
:1004D0007A0010927B00C2E3D0E015E080917C00AE
:1004E0008F6080937C0022E330E090E080E04091D8
:1004F0007A00406440937A0040917A0046FDFCCF38
:100500004091780050917900840F951F2150310956
:1005100071F7BE010E946505169FC001179F900DDF
:100520001124BC0190E080E00E943C0420E030EC0B
:100530004FE754E40E949B036B017C01AC019B01DB
:100540000E946005882349F082E191E00E945801F1
:100550008EE191E00E945801C1CF2FEF3FEF4FE7AE
:100560005FE7C701B6010E94600581110DC02FEF42
:100570003FEF4FE75FE7C701B6010E9496031816E9
:100580001CF486E191E0E2CF2FEF3FEF4FE75FE40D
:10059000C701B6010E94EE0418161CF48AE191E02E
:1005A000D5CF2FEF3FEF4FE75FECC701B6010E94B9
:1005B000960387FDF3CF2AE037ED43EA5BE3C701FB
:1005C000B6010E942A034B015C010E940D046B01DD
:1005D0007C010E943C049B01AC01C501B4010E9456
:1005E00029034B015C014AE0C701B6010E94650185
:1005F0006EE282E291E00E94EB0020E030E040E217
:1006000051E4C501B4010E94F3044B015C010E9456
:100610000D046B01F12CE12C4AE0C701B6010E94E8
:100620006501C701B6010E943C049B01AC01C501F4
:10063000B4010E94290320E030E040E251E40E942E
:10064000F3040E940D0490E080E04AE00E946501FE
:100650007FCF5058BB27AA270E9441030C94B404B3
:100660000E94A60438F00E94AD0420F039F49F3FA8
:1006700019F426F40C94A3040EF4E095E7FB0C9413
:100680009D04E92F0E94C50458F3BA176207730747
:100690008407950720F079F4A6F50C94E7040EF48E
:1006A000E0950B2EBA2FA02D0B01B90190010C0182
:1006B000CA01A0011124FF27591B99F0593F50F49A
:1006C000503E68F11A16F040A22F232F342F4427F2
:1006D000585FF3CF469537952795A795F0405395EA
:1006E000C9F77EF41F16BA0B620B730B840BBAF0BA
:1006F0009150A1F0FF0FBB1F661F771F881FC2F725
:100700000EC0BA0F621F731F841F48F48795779538
:100710006795B795F7959E3F08F0B0CF9395880FF2
:1007200008F09927EE0F9795879508950E94790410
:1007300008F481E008950E94AF030C94B4040E9471
:10074000AD0458F00E94A60440F029F45F3F29F060
:100750000C949D0451110C94E8040C94A3040E9481
:10076000C50468F39923B1F3552391F3951B550BF9
:10077000BB27AA2762177307840738F09F5F5F4F74
:10078000220F331F441FAA1FA9F335D00E2E3AF0B3
:10079000E0E832D091505040E695001CCAF72BD0CB
:1007A000FE2F29D0660F771F881FBB1F261737071C
:1007B0004807AB07B0E809F0BB0B802DBF01FF274E
:1007C00093585F4F3AF09E3F510578F00C949D048A
:1007D0000C94E8045F3FE4F3983ED4F38695779554
:1007E0006795B795F7959F5FC9F7880F911D969507
:1007F000879597F90895E1E0660F771F881FBB1F63
:10080000621773078407BA0720F0621B730B840B0F
:10081000BA0BEE1F88F7E09508950E94CD0488F08A
:100820009F5798F0B92F9927B751B0F0E1F0660FB4
:10083000771F881F991F1AF0BA95C9F714C0B130F5
:1008400091F00E94E704B1E008950C94E704672F4B
:10085000782F8827B85F39F0B93FCCF38695779524
:100860006795B395D9F73EF490958095709561950D
:100870007F4F8F4F9F4F0895E89409C097FB3EF438
:1008800090958095709561957F4F8F4F9F4F9923DD
:10089000A9F0F92F96E9BB279395F695879577955B
:1008A0006795B795F111F8CFFAF4BB0F11F460FF1B
:1008B0001BC06F5F7F4F8F4F9F4F16C0882311F073
:1008C00096E911C0772321F09EE8872F762F05C087
:1008D000662371F096E8862F70E060E02AF09A9522
:1008E000660F771F881FDAF7880F9695879597F917
:1008F0000895990F0008550FAA0BE0E8FEEF1616B1
:100900001706E807F907C0F012161306E407F50703
:1009100098F0621B730B840B950B39F40A2661F077
:10092000232B242B252B21F408950A2609F4A1401A
:10093000A6958FEF811D811D089597F99F6780E827
:1009400070E060E008959FEF80EC089500240A9421
:100950001616170618060906089500240A9412169A
:100960001306140605060895092E0394000C11F4CD
:10097000882352F0BB0F40F4BF2B11F460FF04C07A
:100980006F5F7F4F8F4F9F4F089557FD9058440FD3
:10099000551F59F05F3F71F04795880F97FB991FDE
:1009A00061F09F3F79F0879508951216130614069B
:1009B000551FF2CF4695F1DF08C016161706180628
:1009C000991FF1CF86957105610508940895E89403
:1009D000BB2766277727CB0197F908950E947904F2
:1009E00008F48FEF08950E9406050C94B4040E9449
:1009F000A60438F00E94AD0420F0952311F00C9469
:100A00009D040C94A30411240C94E8040E94C504D2
:100A100070F3959FC1F3950F50E0551F629FF00151
:100A2000729FBB27F00DB11D639FAA27F00DB11D6A
:100A3000AA1F649F6627B00DA11D661F829F2227F3
:100A4000B00DA11D621F739FB00DA11D621F839F7A
:100A5000A00D611D221F749F3327A00D611D231F50
:100A6000849F600D211D822F762F6A2F11249F579E
:100A700050409AF0F1F088234AF0EE0FFF1FBB1FA1
:100A8000661F771F881F91505040A9F79E3F510560
:100A900080F00C949D040C94E8045F3FE4F3983ECE
:100AA000D4F3869577956795B795F795E7959F5F0A
:100AB000C1F7FE2B880F911D9695879597F908959C
:100AC0000E947904880B990B0895AA1BBB1B51E166
:100AD00007C0AA1FBB1FA617B70710F0A61BB70BAE
:100AE000881F991F5A95A9F780959095BC01CD0153
:100AF0000895A1E21A2EAA1BBB1BFD010DC0AA1F5F
:100B0000BB1FEE1FFF1FA217B307E407F50720F076
:100B1000A21BB30BE40BF50B661F771F881F991FF1
:100B20001A9469F760957095809590959B01AC013A
:100B3000BD01CF010895EE0FFF1F0590F491E02D48
:060B40000994F894FFCFB8
:100B460000000000EB005F008C003801BD009B0038
:100B5600AF006E616E00696E66006F7666000D0A04
:020B660000008D
:00000001FF
