:020000040000FA
:100000000C9435000C945D000C945D000C94790305
:100010000C945D000C945D000C945D000C94130234
:100020000C945D000C945D000C945D000C945D00DC
:100030000C945D000C945D000C945D000C945D00CC
:100040000C945D000C945D000C94E1010C94BB01D8
:100050000C945D000C945D000C945D000C945D00AC
:100060000C945D000C945D009E0311241FBECFEF25
:10007000D8E0DEBFCDBF11E0A0E0B1E0E8E2FCE0F7
:1000800002C005900D92A035B107D9F721E0A0E597
:10009000B1E001C01D92A53FB207E1F710E0C5E352
:1000A000D0E004C02197FE010E940C06C433D107A2
:1000B000C9F70E94CB030C9412060C940000AF9277
:1000C000BF92CF92DF92EF92FF920F931F93CF9345
:1000D000DF936C017B018B01040F151FEB015E01A7
:1000E000AE18BF08C017D10759F06991D601ED913C
:1000F000FC910190F081E02DC6010995892B79F7DB
:10010000C501DF91CF911F910F91FF90EF90DF908C
:10011000CF90BF90AF900895FC01538D448D252F53
:1001200030E0842F90E0821B930B541710F0CF9691
:10013000089501970895FC01918D828D981761F0C3
:10014000A28DAE0FBF2FB11D5D968C91928D9F5FDA
:100150009F73928F90E008958FEF9FEF0895FC01B9
:10016000918D828D981731F0828DE80FF11D858D6C
:1001700090E008958FEF9FEF0895FC01918D228DFF
:10018000892F90E0805C9F4F821B91098F73992784
:100190000895FC01A48DA80FB92FB11DA35ABF4F1C
:1001A0002C91848D90E001968F739927848FA68976
:1001B000B7892C93A089B1898C91837080648C93CA
:1001C000938D848D981306C00288F389E02D808179
:1001D0008F7D80830895EF92FF920F931F93CF93AB
:1001E000DF93EC0181E0888F9B8D8C8D98131AC072
:1001F000E889F989808185FF15C09FB7F894EE8959
:10020000FF896083E889F9898081837080648083B5
:100210009FBF81E090E0DF91CF911F910F91FF9000
:10022000EF900895F62E0B8D10E00F5F1F4F0F73A8
:100230001127E02E8C8D8E110CC00FB607FCFACF63
:10024000E889F989808185FFF5CFCE010E94C90038
:10025000F1CFEB8DEC0FFD2FF11DE35AFF4FF08234
:100260009FB7F8940B8FEA89FB8980818062CFCF9A
:10027000CF93DF93EC01888D8823B9F0AA89BB89DD
:10028000E889F9898C9185FD03C0808186FD0DC0C8
:100290000FB607FCF7CF8C9185FFF2CF808185FFE9
:1002A000EDCFCE010E94C900E9CFDF91CF91089533
:1002B000FC0101900020E9F73197AF01481B590B71
:1002C000BC0188E591E00C945F008F929F92AF9201
:1002D000BF920F931F93CF93DF93CDB7DEB7A19754
:1002E0000FB6F894DEBF0FBECDBF19A2423008F49E
:1002F0004AE08E010F5D1F4F842E912CB12CA12C52
:10030000A50194010E94EA05E62FB901CA01EA306D
:10031000F4F4E05DD801EE938D01232B242B252BE3
:1003200079F790E080E0109719F0CD010E94580114
:10033000A1960FB6F894DEBF0FBECDBFDF91CF916F
:100340001F910F91BF90AF909F908F900895E95C9F
:10035000E1CFCF93DF93BC0190E080E04AE00E94C0
:100360006501EC0182E191E00E9458018C0F9D1F14
:10037000DF91CF9108951F920F920FB60F92112423
:100380002F933F934F935F936F937F938F939F939D
:10039000AF93BF93EF93FF9388E591E00E94C9006C
:1003A000FF91EF91BF91AF919F918F917F916F914D
:1003B0005F914F913F912F910F900FBE0F901F9023
:1003C00018951F920F920FB60F9211242F938F93AF
:1003D0009F93EF93FF93E0916801F0916901808111
:1003E000E0916E01F0916F0182FD1BC090818091C0
:1003F00071018F5F8F7320917201821741F0E0913C
:100400007101F0E0E85AFE4F958F80937101FF91E2
:10041000EF919F918F912F910F900FBE0F901F9092
:1004200018958081F4CF1F920F920FB60F9211246E
:100430008F929F92AF92BF92CF92DF92EF92FF92F4
:100440002F933F934F935F936F937F938F939F93DC
:10045000AF93BF93EF93FF93809156019091570113
:10046000019690935701809356018436910580F14F
:1004700080915401909155011092570110925601AC
:100480000196909355018093540123EC35EF4EEF84
:1004900051E460915001709151018091520190910D
:1004A00053010E941A04609350017093510180938C
:1004B0005201909353010E948B0467BD85E191E046
:1004C0000E94580180915601909157010E94A90104
:1004D00080915401909155010997ACF05E9810926B
:1004E000550110925401109257011092560110922A
:1004F000B1008CE191E00E945801809156019091E9
:1005000057010E94A90185E191E00E945801809164
:100510005601909157010E94A90188E291E00E9442
:100520005801C0905001D0905101E0905201F090DC
:100530005301A7019601C701B6010E94E505882372
:1005400009F445C085E391E00E94580182E191E001
:100550000E94580181E491E00E945801C09054012A
:10056000D09055010D2C000CEE08FF084AE0C701A1
:10057000B601F7FE0DC06DE288E591E00E94EB0048
:1005800066277727CB016C197D098E099F094AE000
:100590000E94650182E191E00E945801FF91EF9174
:1005A000BF91AF919F918F917F916F915F914F918B
:1005B0003F912F91FF90EF90DF90CF90BF90AF9041
:1005C0009F908F900F900FBE0F901F90189546012F
:1005D0005701E894B7F82FEF3FEF4FE75FE7C5010A
:1005E000B4010E94E50581110DC02FEF3FEF4FE7E9
:1005F0005FE7C501B4010E94860418161CF489E364
:1006000091E0A2CF2FEF3FEF4FE75FE4C701B601C4
:100610000E94730518161CF48DE391E095CF2FEF1F
:100620003FEF4FE75FECC701B6010E94860487FDEC
:10063000F3CF20E030E0A901C701B6010E94860493
:1006400087FF09C06DE288E591E00E94EB00F7FAB0
:10065000F094F7F8F0942AE037ED43EA5BE3C70142
:10066000B6010E941A044B015C010E9492046B01C6
:100670007C010E94C1049B01AC01C501B4010E9430
:1006800019044B015C014AE0C701B6010E946501F3
:100690006EE288E591E00E94EB0020E030E040E26D
:1006A00051E4C501B4010E9478054B015C010E9430
:1006B00092046B01F12CE12C4AE0C701B6010E94C3
:1006C0006501C701B6010E94C1049B01AC01C501CF
:1006D000B4010E94190420E030E040E251E40E949D
:1006E00078050E94920490E080E04AE00E94650153
:1006F0002DCF1F920F920FB60F9211248F9319993D
:1007000003C082E08093B1001A9912C05E981092E3
:10071000500110925101109252011092530117BCD6
:1007200010925501109254011092570110925601E7
:100730008F910F900FBE0F901F901895E8E5F1E094
:100740001382128288EE93E0A0E0B0E08483958368
:10075000A683B78384E091E09183808385EC90E069
:100760009587848784EC90E09787868780EC90E07B
:10077000918B808B81EC90E0938B828B82EC90E06C
:10078000958B848B86EC90E0978B868B118E128EE6
:10079000138E148E0895E0916801F091690192E042
:1007A0009083E0916401F09165011082E09166010F
:1007B000F091670180E1808310927001E0916C01FB
:1007C000F0916D0186E08083E0916A01F0916B0108
:1007D000208120612083E0916A01F0916B012081EA
:1007E00028602083E0916A01F0916B0120812068EC
:1007F0002083E0916A01F0916B0120812F7D20839D
:1008000020E42AB95E9885B923E824BD25E025BDFA
:1008100017BC9093B0001092B10027EC2093B30066
:100820009093700091E09093680080936B007894AF
:10083000FFCF5058BB27AA270E9431040C943905DA
:100840000E942B0538F00E94320520F039F49F3FBA
:1008500019F426F40C9428050EF4E095E7FB0C94AB
:100860002205E92F0E944A0558F3BA176207730759
:100870008407950720F079F4A6F50C946C050EF426
:10088000E0950B2EBA2FA02D0B01B90190010C01A0
:10089000CA01A0011124FF27591B99F0593F50F4B8
:1008A000503E68F11A16F040A22F232F342F442710
:1008B000585FF3CF469537952795A795F040539508
:1008C000C9F77EF41F16BA0B620B730B840BBAF0D8
:1008D0009150A1F0FF0FBB1F661F771F881FC2F743
:1008E0000EC0BA0F621F731F841F48F48795779557
:1008F0006795B795F7959E3F08F0B0CF9395880F11
:1009000008F09927EE0F9795879508950E94FE04A9
:1009100008F481E008950E9492046894B1110C9447
:100920006D0508950E94520588F09F5798F0B92FE1
:100930009927B751B0F0E1F0660F771F881F991F14
:100940001AF0BA95C9F714C0B13091F00E946C0545
:10095000B1E008950C946C05672F782F8827B85F55
:1009600039F0B93FCCF3869577956795B395D9F76C
:100970003EF490958095709561957F4F8F4F9F4F76
:100980000895E89409C097FB3EF490958095709582
:1009900061957F4F8F4F9F4F9923A9F0F92F96E9CB
:1009A000BB279395F695879577956795B795F11140
:1009B000F8CFFAF4BB0F11F460FF1BC06F5F7F4FDD
:1009C0008F4F9F4F16C0882311F096E911C07723EF
:1009D00021F09EE8872F762F05C0662371F096E8F8
:1009E000862F70E060E02AF09A95660F771F881FC7
:1009F000DAF7880F9695879597F90895990F00086B
:100A0000550FAA0BE0E8FEEF16161706E807F907E0
:100A1000C0F012161306E407F50798F0621B730B7B
:100A2000840B950B39F40A2661F0232B242B252BFC
:100A300021F408950A2609F4A140A6958FEF811D9F
:100A4000811D089597F99F6780E870E060E0089540
:100A50009FEF80EC089500240A94161617061806D6
:100A60000906089500240A941216130614060506B2
:100A70000895092E0394000C11F4882352F0BB0F43
:100A800040F4BF2B11F460FF04C06F5F7F4F8F4FA6
:100A90009F4F089557FD9058440F551F59F05F3FE1
:100AA00071F04795880F97FB991F61F09F3F79F090
:100AB00087950895121613061406551FF2CF469512
:100AC000F1DF08C0161617061806991FF1CF869594
:100AD0007105610508940895E894BB276627772778
:100AE000CB0197F908950E94FE0408F48FEF089552
:100AF0000E948B050C9439050E942B0538F00E944A
:100B0000320520F0952311F00C9422050C94280551
:100B100011240C946D050E944A0570F3959FC1F352
:100B2000950F50E0551F629FF001729FBB27F00D9B
:100B3000B11D639FAA27F00DB11DAA1F649F6627F0
:100B4000B00DA11D661F829F2227B00DA11D621F3F
:100B5000739FB00DA11D621F839FA00D611D221FF9
:100B6000749F3327A00D611D231F849F600D211DDD
:100B7000822F762F6A2F11249F5750409AF0F1F060
:100B800088234AF0EE0FFF1FBB1F661F771F881FC9
:100B900091505040A9F79E3F510580F00C942205DA
:100BA0000C946D055F3FE4F3983ED4F386957795FA
:100BB0006795B795F795E7959F5FC1F7FE2B880F6F
:100BC000911D9695879597F908950E94FE04880BCC
:100BD000990B0895A1E21A2EAA1BBB1BFD010DC0A3
:100BE000AA1FBB1FEE1FFF1FA217B307E407F507DD
:100BF00020F0A21BB30BE40BF50B661F771F881FB9
:100C0000991F1A9469F760957095809590959B014E
:100C1000AC01BD01CF010895EE0FFF1F0590F491C7
:100C2000E02D0994F894FFCF00000000EB005F0076
:100C30008C003801BD009B00AF000D0A00436F6EB1
:100C4000743A2000436F6E7420656C73653A20001F
:100C500044757479204379636C653A20006E616E47
:100C600000696E66006F766600436F6E742E2054C6
:080C70006F74616C3A20000072
:107E0000112484B714BE81FFF0D085E080938100F7
:107E100082E08093C00088E18093C10086E0809377
:107E2000C20080E18093C4008EE0C9D0259A86E02C
:107E300020E33CEF91E0309385002093840096BBD3
:107E4000B09BFECF1D9AA8958150A9F7CC24DD24C4
:107E500088248394B5E0AB2EA1E19A2EF3E0BF2EE7
:107E6000A2D0813461F49FD0082FAFD0023811F036
:107E7000013811F484E001C083E08DD089C08234E0
:107E800011F484E103C0853419F485E0A6D080C0E4
:107E9000853579F488D0E82EFF2485D0082F10E0AE
:107EA000102F00270E291F29000F111F8ED06801E7
:107EB0006FC0863521F484E090D080E0DECF843638
:107EC00009F040C070D06FD0082F6DD080E0C81688
:107ED00080E7D80618F4F601B7BEE895C0E0D1E017
:107EE00062D089930C17E1F7F0E0CF16F0E7DF06D8
:107EF00018F0F601B7BEE89568D007B600FCFDCFD4
:107F0000A601A0E0B1E02C9130E011968C91119780
:107F100090E0982F8827822B932B1296FA010C0160
:107F200087BEE89511244E5F5F4FF1E0A038BF0790
:107F300051F7F601A7BEE89507B600FCFDCF97BE46
:107F4000E89526C08437B1F42ED02DD0F82E2BD052
:107F50003CD0F601EF2C8F010F5F1F4F84911BD097
:107F6000EA94F801C1F70894C11CD11CFA94CF0C13
:107F7000D11C0EC0853739F428D08EE10CD085E9AC
:107F80000AD08FE07ACF813511F488E018D01DD067
:107F900080E101D065CF982F8091C00085FFFCCF94
:107FA0009093C60008958091C00087FFFCCF809118
:107FB000C00084FD01C0A8958091C6000895E0E648
:107FC000F0E098E1908380830895EDDF803219F02E
:107FD00088E0F5DFFFCF84E1DECF1F93182FE3DFCA
:107FE0001150E9F7F2DF1F91089580E0E8DFEE27F6
:047FF000FF270994CA
:027FFE00040479
:00000001FF
