:100000000C9435000C945D000C945D000C945D0024
:100010000C9401020C945D000C945D000C945D0046
:100020000C945D000C945D000C945D000C945D00DC
:100030000C945D000C945D000C945D000C945D00CC
:100040000C945D000C945D000C94CF010C94A901FC
:100050000C945D000C945D000C945D000C945D00AC
:100060000C945D000C945D00270311241FBECFEF9C
:10007000D8E0DEBFCDBF11E0A0E0B1E0E8E2FBE0F8
:1000800002C005900D92A633B107D9F721E0A6E38F
:10009000B1E001C01D92A73DB207E1F710E0C5E352
:1000A000D0E004C02197FE010E948C05C433D10723
:1000B000C9F70E9454030C9492050C940000AF926F
:1000C000BF92CF92DF92EF92FF920F931F93CF9345
:1000D000DF936C017B018B01040F151FEB015E01A7
:1000E000AE18BF08C017D10759F06991D601ED913C
:1000F000FC910190F081E02DC6010995892B79F7DB
:10010000C501DF91CF911F910F91FF90EF90DF908C
:10011000CF90BF90AF900895FC01538D448D252F53
:1001200030E0842F90E0821B930B541710F0CF9691
:10013000089501970895FC01918D828D981761F0C3
:10014000A28DAE0FBF2FB11D5D968C91928D9F5FDA
:100150009F73928F90E008958FEF9FEF0895FC01B9
:10016000918D828D981731F0828DE80FF11D858D6C
:1001700090E008958FEF9FEF0895FC01918D228DFF
:10018000892F90E0805C9F4F821B91098F73992784
:100190000895FC01A48DA80FB92FB11DA35ABF4F1C
:1001A0002C91848D90E001968F739927848FA68976
:1001B000B7892C93A089B1898C91837080648C93CA
:1001C000938D848D981306C00288F389E02D808179
:1001D0008F7D80830895EF92FF920F931F93CF93AB
:1001E000DF93EC0181E0888F9B8D8C8D98131AC072
:1001F000E889F989808185FF15C09FB7F894EE8959
:10020000FF896083E889F9898081837080648083B5
:100210009FBF81E090E0DF91CF911F910F91FF9000
:10022000EF900895F62E0B8D10E00F5F1F4F0F73A8
:100230001127E02E8C8D8E110CC00FB607FCFACF63
:10024000E889F989808185FFF5CFCE010E94C90038
:10025000F1CFEB8DEC0FFD2FF11DE35AFF4FF08234
:100260009FB7F8940B8FEA89FB8980818062CFCF9A
:10027000CF93DF93EC01888D8823B9F0AA89BB89DD
:10028000E889F9898C9185FD03C0808186FD0DC0C8
:100290000FB607FCF7CF8C9185FFF2CF808185FFE9
:1002A000EDCFCE010E94C900E9CFDF91CF91089533
:1002B000FC0101900020E9F73197AF01481B590B71
:1002C000BC018AE391E00C945F008F929F92AF9201
:1002D000BF920F931F93CF93DF93CDB7DEB7A19754
:1002E0000FB6F894DEBF0FBECDBF19A2423008F49E
:1002F0004AE08E010F5D1F4F842E912CB12CA12C52
:10030000A50194010E946A05E62FB901CA01EA30ED
:10031000F4F4E05DD801EE938D01232B242B252BE3
:1003200079F790E080E0109719F0CD010E94580114
:10033000A1960FB6F894DEBF0FBECDBFDF91CF916F
:100340001F910F91BF90AF909F908F900895E95C9F
:10035000E1CF1F920F920FB60F9211242F933F936C
:100360004F935F936F937F938F939F93AF93BF93BD
:10037000EF93FF938AE391E00E94C900FF91EF9110
:10038000BF91AF919F918F917F916F915F914F91AD
:100390003F912F910F900FBE0F901F9018951F92B5
:1003A0000F920FB60F9211242F938F939F93EF9379
:1003B000FF93E0914A01F0914B018081E09150015F
:1003C000F091510182FD1BC09081809153018F5F9C
:1003D0008F7320915401821741F0E0915301F0E0B6
:1003E000E65CFE4F958F80935301FF91EF919F91B3
:1003F0008F912F910F900FBE0F901F9018958081B5
:10040000F4CF1F920F920FB60F9211248F929F92EA
:10041000AF92BF92CF92DF92EF92FF922F933F93D2
:100420004F935F936F937F938F939F93AF93BF93FC
:10043000EF93FF93309957C020E030E04CEC51E44B
:1004400060913601709137018091380190913901A6
:100450000E949A036B017C0120E030E04FE753E4F7
:100460000E94F30418160CF457C0C0923601D092C3
:100470003701E0923801F0923901609136017091B4
:10048000370180913801909139010E940B0467BDBA
:1004900082E191E00E945801C0903601D09037016E
:1004A000E0903801F0903901A7019601C701B6012B
:1004B0000E9465058823C9F18FE191E00E945801EF
:1004C0008BE291E00E9458018EE291E00E94580177
:1004D00067B570E090E080E04AE00E9465018BE241
:1004E00091E00E945801FF91EF91BF91AF919F91D0
:1004F0008F917F916F915F914F913F912F91FF90DD
:10050000EF90DF90CF90BF90AF909F908F900F9023
:100510000FBE0F901F901895109236011092370160
:100520001092380110923901A8CF46015701E89482
:10053000B7F82FEF3FEF4FE75FE7C501B4010E9427
:10054000650581110DC02FEF3FEF4FE75FE7C50154
:10055000B4010E94060418161CF483E291E0AECFA9
:100560002FEF3FEF4FE75FE4C701B6010E94F304AE
:1005700018161CF487E291E0A1CF2FEF3FEF4FE771
:100580005FECC701B6010E94060487FDF3CF20E0AF
:1005900030E0A901C701B6010E94060487FF09C027
:1005A0006DE28AE391E00E94EB00F7FAF094F7F82D
:1005B000F0942AE037ED43EA5BE3C701B6010E94FD
:1005C0009A034B015C010E9412046B017C010E94A2
:1005D00041049B01AC01C501B4010E9499034B0188
:1005E0005C014AE0C701B6010E9465016EE28AE340
:1005F00091E00E94EB0020E030E040E251E4C501D0
:10060000B4010E94F8044B015C010E9412046B01CA
:10061000F12CE12C4AE0C701B6010E946501C70137
:10062000B6010E9441049B01AC01C501B4010E94C6
:10063000990320E030E040E251E40E94F8040E9477
:10064000120490E080E04AE00E94650139CFEAE3BD
:10065000F1E01382128288EE93E0A0E0B0E08483A0
:100660009583A683B78384E091E09183808385ECB2
:1006700090E09587848784EC90E09787868780EC6C
:1006800090E0918B808B81EC90E0938B828B82EC5D
:1006900090E0958B848B86EC90E0978B868B118E07
:1006A000128E138E148E0895E0914A01F0914B0141
:1006B00092E09083E0914601F09147011082E09131
:1006C0004801F091490180E1808310925201E0914C
:1006D0004E01F0914F0186E08083E0914C01F09152
:1006E0004D01808180618083E0914C01F0914D014A
:1006F000808188608083E0914C01F0914D01808180
:1007000080688083E0914C01F0914D0180818F7D64
:10071000808380E48AB981E088B95E9823E824BDAB
:1007200025E025BD17BC9093680080936C007894F9
:10073000FFCF5058BB27AA270E94B1030C94B904DD
:100740000E94AB0438F00E94B20420F039F49F3FBD
:1007500019F426F40C94A8040EF4E095E7FB0C942D
:10076000A204E92F0E94CA0458F3BA17620773075C
:100770008407950720F079F4A6F50C94EC040EF4A8
:10078000E0950B2EBA2FA02D0B01B90190010C01A1
:10079000CA01A0011124FF27591B99F0593F50F4B9
:1007A000503E68F11A16F040A22F232F342F442711
:1007B000585FF3CF469537952795A795F040539509
:1007C000C9F77EF41F16BA0B620B730B840BBAF0D9
:1007D0009150A1F0FF0FBB1F661F771F881FC2F744
:1007E0000EC0BA0F621F731F841F48F48795779558
:1007F0006795B795F7959E3F08F0B0CF9395880F12
:1008000008F09927EE0F9795879508950E947E042A
:1008100008F481E008950E9412046894B1110C94C8
:10082000ED0408950E94D20488F09F5798F0B92FE4
:100830009927B751B0F0E1F0660F771F881F991F15
:100840001AF0BA95C9F714C0B13091F00E94EC04C7
:10085000B1E008950C94EC04672F782F8827B85FD7
:1008600039F0B93FCCF3869577956795B395D9F76D
:100870003EF490958095709561957F4F8F4F9F4F77
:100880000895E89409C097FB3EF490958095709583
:1008900061957F4F8F4F9F4F9923A9F0F92F96E9CC
:1008A000BB279395F695879577956795B795F11141
:1008B000F8CFFAF4BB0F11F460FF1BC06F5F7F4FDE
:1008C0008F4F9F4F16C0882311F096E911C07723F0
:1008D00021F09EE8872F762F05C0662371F096E8F9
:1008E000862F70E060E02AF09A95660F771F881FC8
:1008F000DAF7880F9695879597F90895990F00086C
:10090000550FAA0BE0E8FEEF16161706E807F907E1
:10091000C0F012161306E407F50798F0621B730B7C
:10092000840B950B39F40A2661F0232B242B252BFD
:1009300021F408950A2609F4A140A6958FEF811DA0
:10094000811D089597F99F6780E870E060E0089541
:100950009FEF80EC089500240A94161617061806D7
:100960000906089500240A941216130614060506B3
:100970000895092E0394000C11F4882352F0BB0F44
:1009800040F4BF2B11F460FF04C06F5F7F4F8F4FA7
:100990009F4F089557FD9058440F551F59F05F3FE2
:1009A00071F04795880F97FB991F61F09F3F79F091
:1009B00087950895121613061406551FF2CF469513
:1009C000F1DF08C0161617061806991FF1CF869595
:1009D0007105610508940895E894BB276627772779
:1009E000CB0197F908950E947E0408F48FEF0895D3
:1009F0000E940B050C94B9040E94AB0438F00E94CD
:100A0000B20420F0952311F00C94A2040C94A804D5
:100A100011240C94ED040E94CA0470F3959FC1F355
:100A2000950F50E0551F629FF001729FBB27F00D9C
:100A3000B11D639FAA27F00DB11DAA1F649F6627F1
:100A4000B00DA11D661F829F2227B00DA11D621F40
:100A5000739FB00DA11D621F839FA00D611D221FFA
:100A6000749F3327A00D611D231F849F600D211DDE
:100A7000822F762F6A2F11249F5750409AF0F1F061
:100A800088234AF0EE0FFF1FBB1F661F771F881FCA
:100A900091505040A9F79E3F510580F00C94A2045C
:100AA0000C94ED045F3FE4F3983ED4F3869577957C
:100AB0006795B795F795E7959F5FC1F7FE2B880F70
:100AC000911D9695879597F908950E947E04880B4D
:100AD000990B0895A1E21A2EAA1BBB1BFD010DC0A4
:100AE000AA1FBB1FEE1FFF1FA217B307E407F507DE
:100AF00020F0A21BB30BE40BF50B661F771F881FBA
:100B0000991F1A9469F760957095809590959B014F
:100B1000AC01BD01CF010895EE0FFF1F0590F491C8
:080B2000E02D0994F894FFCFC9
:100B280000000000EB005F008C003801BD009B0056
:100B3800AF0044757479204379636C653A20006E80
:100B4800616E00696E66006F7666000D0A004F439D
:060B5800524F413A20005B
:00000001FF
