:100000000C9435000C945D000C945D000C94DD02A2
:100010000C945D000C945D000C945D000C94300316
:100020000C945D000C945D000C945D000C945D00DC
:100030000C945D000C945D000C945D000C945D00CC
:100040000C945D000C945D000C94AB020C94850242
:100050000C945D000C945D000C945D000C945D00AC
:100060000C945D000C945D00AC0311241FBECFEF17
:10007000D8E0DEBFCDBF11E0A0E0B1E0EEE4FDE0EE
:1000800002C005900D92A232B107D9F721E0A2E299
:10009000B1E001C01D92A53CB207E1F710E0C5E355
:1000A000D0E004C02197FE010E949F06C433D1070F
:1000B000C9F70E94D9030C94A5060C940000AF92D6
:1000C000BF92CF92DF92EF92FF920F931F93CF9345
:1000D000DF936C017B018B01040F151FEB015E01A7
:1000E000AE18BF08C017D10759F06991D601ED913C
:1000F000FC910190F081E02DC6010995892B79F7DB
:10010000C501DF91CF911F910F91FF90EF90DF908C
:10011000CF90BF90AF900895FC01538D448D252F53
:1001200030E0842F90E0821B930B541710F0CF9691
:10013000089501970895FC01918D828D981761F0C3
:10014000A28DAE0FBF2FB11D5D968C91928D9F5FDA
:100150009F73928F90E008958FEF9FEF0895FC01B9
:10016000918D828D981731F0828DE80FF11D858D6C
:1001700090E008958FEF9FEF0895FC01918D228DFF
:10018000892F90E0805C9F4F821B91098F73992784
:100190000895FC01A48DA80FB92FB11DA35ABF4F1C
:1001A0002C91848D90E001968F739927848FA68976
:1001B000B7892C93A089B1898C91837080648C93CA
:1001C000938D848D981306C00288F389E02D808179
:1001D0008F7D80830895EF92FF920F931F93CF93AB
:1001E000DF93EC0181E0888F9B8D8C8D98131AC072
:1001F000E889F989808185FF15C09FB7F894EE8959
:10020000FF896083E889F9898081837080648083B5
:100210009FBF81E090E0DF91CF911F910F91FF9000
:10022000EF900895F62E0B8D10E00F5F1F4F0F73A8
:100230001127E02E8C8D8E110CC00FB607FCFACF63
:10024000E889F989808185FFF5CFCE010E94C90038
:10025000F1CFEB8DEC0FFD2FF11DE35AFF4FF08234
:100260009FB7F8940B8FEA89FB8980818062CFCF9A
:10027000CF93DF93EC01888D8823B9F0AA89BB89DD
:10028000E889F9898C9185FD03C0808186FD0DC0C8
:100290000FB607FCF7CF8C9185FFF2CF808185FFE9
:1002A000EDCFCE010E94C900E9CFDF91CF91089533
:1002B000FC0101900020E9F73197AF01481B590B71
:1002C000BC0188E291E00C945F008F929F92AF9204
:1002D000BF920F931F93CF93DF93CDB7DEB7A19754
:1002E0000FB6F894DEBF0FBECDBF19A2423008F49E
:1002F0004AE08E010F5D1F4F842E912CB12CA12C52
:10030000A50194010E947D06E62FB901CA01EA30D9
:10031000F4F4E05DD801EE938D01232B242B252BE3
:1003200079F790E080E0109719F0CD010E94580114
:10033000A1960FB6F894DEBF0FBECDBFDF91CF916F
:100340001F910F91BF90AF909F908F900895E95C9F
:10035000E1CF4F925F926F927F928F929F92AF9276
:10036000BF92CF92DF92EF92FF920F931F93CF93A2
:100370006B017C01742EAC019B010E9464068823F2
:1003800099F082E191E0CF911F910F91FF90EF9052
:10039000DF90CF90BF90AF909F908F907F906F90A5
:1003A0005F904F900C94580146015701E894B7F8BC
:1003B0002FEF3FEF4FE75FE7C501B4010E946406EE
:1003C00081110DC02FEF3FEF4FE75FE7C501B4018B
:1003D0000E94930418161CF486E191E0D4CF2FEF0D
:1003E0003FEF4FE75FE4C701B6010E94F205181620
:1003F0001CF48AE191E0C7CF2FEF3FEF4FE75FECAE
:10040000C701B6010E94930487FDF3CF20E030E0DE
:10041000A901C701B6010E94930410E000E087FF24
:100420000AC06DE288E291E00E94EB008C01F7FACD
:10043000F094F7F8F094C0E060E070E080E09FE3B3
:100440007C1641F020E030E040E251E40E94980444
:10045000CF5FF6CFA70196010E9427042B013C0134
:100460000E9411054B015C014AE00E9465017C017C
:10047000E00EF11ECC23C1F1C501B4010E9440057C
:100480009B01AC01C301B2010E9426044B015C0137
:100490006EE288E291E00E94EB00E80EF91EC15086
:1004A00018F120E030E040E251E4C501B4010E94BF
:1004B000F7052B013C010E9411054B01B12CA12C29
:1004C0004AE0C501B4010E946501E80EF91EC501AC
:1004D000B4010E9440059B01AC01C301B2010E941E
:1004E00026044B015C01DBCFC701CF911F910F9117
:1004F000FF90EF90DF90CF90BF90AF909F908F9044
:100500007F906F905F904F9008951F920F920FB65B
:100510000F9211242F933F934F935F936F937F9389
:100520008F939F93AF93BF93EF93FF9388E291E0F4
:100530000E94C900FF91EF91BF91AF919F918F9160
:100540007F916F915F914F913F912F910F900FBECF
:100550000F901F9018951F920F920FB60F921124B3
:100560002F938F939F93EF93FF93E0913801F09136
:1005700039018081E0913E01F0913F0182FD1BC075
:100580009081809141018F5F8F732091420182178A
:1005900041F0E0914101F0E0E85DFE4F958F8093DE
:1005A0004101FF91EF919F918F912F910F900FBE7D
:1005B0000F901F9018958081F4CF1F920F920FB665
:1005C0000F9211242F933F934F935F936F937F93D9
:1005D0008F939F93AF93BF93EF93FF93199904C0A9
:1005E00082E08093B1005E9A1A9929C01092270187
:1005F000109226011092B100109222011092230154
:10060000109224011092250117BC67B570E090E0AC
:1006100080E04AE00E9465018EE191E00E9458016D
:100620006091220170912301809124019091250114
:1006300042E00E94A9018EE191E00E945801FF91E1
:10064000EF91BF91AF919F918F917F916F915F914A
:100650004F913F912F910F900FBE0F901F901895C3
:100660001F920F920FB60F921124CF92DF92EF924A
:10067000FF922F933F934F935F936F937F938F934B
:100680009F93AF93BF93EF93FF9380912601909137
:1006900027010196909327018093260160E177E27C
:1006A0000E946906892B09F03FC023EC35EF4EEF1D
:1006B00051E4609122017091230180912401909175
:1006C00025010E9427046B017C01C0922201D09277
:1006D0002301E0922401F092250120E030E04FE771
:1006E00053E40E94930487FF34C0C701B6010E94FF
:1006F0000A0567BD67B570E090E080E04AE00E94BF
:1007000065018EE191E00E94580160912201709193
:100710002301809124019091250142E00E94A901CA
:100720008EE191E00E945801FF91EF91BF91AF914E
:100730009F918F917F916F915F914F913F912F91F9
:10074000FF90EF90DF90CF900F900FBE0F901F9013
:1007500018958FEF87BDCECFE8E2F1E013821282C9
:1007600088EE93E0A0E0B0E084839583A683B7830E
:1007700084E091E09183808385EC90E09587848785
:1007800084EC90E09787868780EC90E0918B808B5B
:1007900081EC90E0938B828B82EC90E0958B848B44
:1007A00086EC90E0978B868B118E128E138E148EB2
:1007B0000895E0913801F091390192E09083E09141
:1007C0003401F09135011082E0913601F09137014A
:1007D00080E1808310924001E0913C01F0913D0165
:1007E00086E08083E0913A01F0913B012081206115
:1007F0002083E0913A01F0913B0120812860208321
:10080000E0913A01F0913B01208120682083E09142
:100810003A01F0913B0120812F7D208320E42AB909
:1008200085B99093B0001092B10027EC2093B300EB
:100830009093700091E09093680080936B0083E840
:1008400084BD85E085BD17BC7894FFCF5058BB2789
:10085000AA270E943E040C94B8050E94AA0538F00D
:100860000E94B10520F039F49F3F19F426F40C944E
:10087000A7050EF4E095E7FB0C94A105E92F0E9473
:10088000C90558F3BA17620773078407950720F064
:1008900079F4A6F50C94EB050EF4E0950B2EBA2F27
:1008A000A02D0B01B90190010C01CA01A001112476
:1008B000FF27591B99F0593F50F4503E68F11A1622
:1008C000F040A22F232F342F4427585FF3CF4695B3
:1008D00037952795A795F0405395C9F77EF41F16D5
:1008E000BA0B620B730B840BBAF09150A1F0FF0F9F
:1008F000BB1F661F771F881FC2F70EC0BA0F621F8B
:10090000731F841F48F4879577956795B795F7957A
:100910009E3F08F0B0CF9395880F08F09927EE0F0F
:100920009795879508950E947D0508F481E00895C4
:100930000E94AC040C94B8050E94B10558F00E94C6
:10094000AA0540F029F45F3F29F00C94A10551114C
:100950000C94EC050C94A7050E94C90568F3992333
:10096000B1F3552391F3951B550BBB27AA276217AB
:100970007307840738F09F5F5F4F220F331F441FB8
:10098000AA1FA9F335D00E2E3AF0E0E832D09150EC
:100990005040E695001CCAF72BD0FE2F29D0660FD9
:1009A000771F881FBB1F261737074807AB07B0E81C
:1009B00009F0BB0B802DBF01FF2793585F4F3AF022
:1009C0009E3F510578F00C94A1050C94EC055F3F17
:1009D000E4F3983ED4F3869577956795B795F795A8
:1009E0009F5FC9F7880F911D9695879597F9089590
:1009F000E1E0660F771F881FBB1F6217730784072C
:100A0000BA0720F0621B730B840BBA0BEE1F88F73A
:100A1000E09508950E9411056894B1110C94EC05BD
:100A200008950E94D10588F09F5798F0B92F992713
:100A3000B751B0F0E1F0660F771F881F991F1AF0C9
:100A4000BA95C9F714C0B13091F00E94EB05B1E03E
:100A500008950C94EB05672F782F8827B85F39F03D
:100A6000B93FCCF3869577956795B395D9F73EF462
:100A700090958095709561957F4F8F4F9F4F08950A
:100A8000E89409C097FB3EF4909580957095619528
:100A90007F4F8F4F9F4F9923A9F0F92F96E9BB27DE
:100AA0009395F695879577956795B795F111F8CF5A
:100AB000FAF4BB0F11F460FF1BC06F5F7F4F8F4FC5
:100AC0009F4F16C0882311F096E911C0772321F0BB
:100AD0009EE8872F762F05C0662371F096E8862F53
:100AE00070E060E02AF09A95660F771F881FDAF7AA
:100AF000880F9695879597F90895990F0008550FD7
:100B0000AA0BE0E8FEEF16161706E807F907C0F093
:100B100012161306E407F50798F0621B730B840B9B
:100B2000950B39F40A2661F0232B242B252B21F475
:100B300008950A2609F4A140A6958FEF811D811D15
:100B4000089597F99F6780E870E060E008959FEF4F
:100B500080EC089500240A94161617061806090654
:100B6000089500240A941216130614060506089523
:100B7000092E0394000C11F4882352F0BB0F40F4AB
:100B8000BF2B11F460FF04C06F5F7F4F8F4F9F4FEB
:100B9000089557FD9058440F551F59F05F3F71F06D
:100BA0004795880F97FB991F61F09F3F79F08795D4
:100BB0000895121613061406551FF2CF4695F1DF5D
:100BC00008C0161617061806991FF1CF86957105ED
:100BD000610508940895E894BB2766277727CB0121
:100BE00097F908950E947D0508F48FEF08950E94FB
:100BF0000A060C94B8050E94AA0538F00E94B105B7
:100C000020F0952311F00C94A1050C94A705112454
:100C10000C94EC050E94C90570F3959FC1F3950FE4
:100C200050E0551F629FF001729FBB27F00DB11D70
:100C3000639FAA27F00DB11DAA1F649F6627B00D00
:100C4000A11D661F829F2227B00DA11D621F739FE9
:100C5000B00DA11D621F839FA00D611D221F749FF7
:100C60003327A00D611D231F849F600D211D822F3E
:100C7000762F6A2F11249F5750409AF0F1F0882365
:100C80004AF0EE0FFF1FBB1F661F771F881F915092
:100C90005040A9F79E3F510580F00C94A1050C949B
:100CA000EC055F3FE4F3983ED4F38695779567951E
:100CB000B795F795E7959F5FC1F7FE2B880F911DBC
:100CC0009695879597F908950E947D05880B990B55
:100CD0000895AA1BBB1B51E107C0AA1FBB1FA61783
:100CE000B70710F0A61BB70B881F991F5A95A9F7D5
:100CF00080959095BC01CD010895A1E21A2EAA1B02
:100D0000BB1BFD010DC0AA1FBB1FEE1FFF1FA217BB
:100D1000B307E407F50720F0A21BB30BE40BF50BB8
:100D2000661F771F881F991F1A9469F76095709541
:100D3000809590959B01AC01BD01CF010895EE0F08
:0E0D4000FF1F0590F491E02D0994F894FFCF69
:100D4E0000000000EB005F008C003801BD009B002E
:100D5E00AF006E616E00696E66006F7666000D0AFA
:020D6E00000083
:00000001FF
