:100000000C9434000C9446000C9446000C9446006A
:100010000C9446000C9446000C9446000C94460048
:100020000C9446000C9446000C9446000C94460038
:100030000C9446000C9446000C9446000C94460028
:100040000C9446000C9446000C9446000C94460018
:100050000C9446000C9446000C9446000C94460008
:100060000C9446000C94460011241FBECFEFD8E03C
:10007000DEBFCDBF21E0A0E0B1E001C01D92A23003
:10008000B207E1F70E9448000C9474000C94000041
:10009000539A5B9883E88093B00081E08093B1002D
:1000A0001092B30082E080937000809100018093F1
:1000B000B30080910001909101010A968F3F910554
:1000C00074F490930101809300012FEF81EE94E08E
:1000D000215080409040E1F700C00000E6CF109230
:0C00E000010110920001F1CFF894FFCF55
:00000001FF
