:100000000C9434000C9448000C9446000C94460068
:100010000C9446000C9446000C9446000C94460048
:100020000C9446000C9446000C9446000C94460038
:100030000C9446000C9446000C9446000C94460028
:100040000C9446000C9446000C9446000C94460018
:100050000C9446000C9446000C9446000C94460008
:100060000C9446000C94460011241FBECFEFD8E03C
:10007000DEBFCDBF21E0A0E0B1E001C01D92A23003
:10008000B207E1F70E947B000C9486000C940000FC
:100090001F920F920FB60F9211242F938F939F935D
:1000A0008091000187BD80910001909101018E3FF8
:1000B00091052CF486969093010180930001809124
:1000C0000001909101018F3F910524F010920101F0
:1000D000109200012FEF81EE94E02150804090407B
:1000E000E1F700C000009F918F912F910F900FBEFC
:1000F0000F901F90189580E48AB95A9A84B5836846
:1001000084BD81E085BD17BC7894FFCFF894FFCF04
:00000001FF
